:1000000005308A00502D00007E25EF336F10E4305C
:10001000202B6536E8307E004A1D25196410D01863
:10002000BA1232322028321D251964004A1D2519C2
:100030006410D018BA1232322028321D25196400FB
:10004000D6327A1D2028EC30F9327210311020108F
:100050000001D6327A1D2028EC30F93272103210AD
:1000600020100000CA37E730E430A0246E3B613630
:100070006932E1100001CA37E730E430A0246E3B5A
:1000800061366932E1100000C536F030F437F51002
:1000900020102010201020100000CA37E730E4376D
:1000A00072102532203B6537E332F5100000303006
:1000B0008400000803196A280130A100A001A00BE8
:1000C0005F28A10B5E284A30A000A00B6528682895
:1000D000800B5C2808008316061083120610AF1BE5
:1000E000762883168612831286127A288316861241
:1000F000831286162F1B812883160612831206127E
:1001000085288316061283120616AF1A8C288316CA
:100110008611831286119028831686118312861504
:100120002F1A972883160611831206119B2883160F
:100130000611831206158316861083128614831601
:10014000861083128610AF19AA288316861283128E
:100150008612AE2883168612831286162F19B528AA
:100160008316061283120612B9288316061283120A
:100170000616AF18C0288316861183128611C4286C
:1001800083168611831286152F18CB288316061125
:1001900083120611CF2883160611831206158316C3
:1001A00086108312861483168610831286100230FE
:1001B000B0005720080083160610831206100F3077
:1001C000B000572083160611831206158316861178
:1001D0008312861583168610831286148316861062
:1001E000831286100530B0005720831686108312C4
:1001F000861483168610831286102130A000A00B6F
:10020000FF280230AF006B202830AF006B20063093
:10021000AF006B200C30AF006B200130AF006B20C3
:100220000230B00057208A11682D83160610831201
:100230000614B51B202983168612831286122429E0
:100240008316861283128616351B2B2983160612F7
:10025000831206122F298316061283120616B51A68
:10026000362983168611831286113A298316861140
:1002700083128615351A4129831606118312061139
:1002800045298316061183120615831686108312DC
:1002900086148316861083128610B5195429831686
:1002A00086128312861258298316861283128616A6
:1002B00035195F29831606128312061263298316E5
:1002C000061283120616B5186A2983168611831240
:1002D00086116E29831686118312861535187529A5
:1002E00083160611831206117929831606118312CB
:1002F00006158316861083128614831686108312C1
:1003000086100800831603178C170C1400000000D9
:1003100083120C087F390319C6290313AE00031793
:100320000D080313AF0003170F080313B0002E08C6
:10033000B50015212F0803178D000313300803178C
:100340008F0083168C170C140000000083120C0D14
:100350000E0D7F390319C6290313AE0003170D08CC
:100360000313AF0003170F080313B0002E08B500E6
:1003700015212F0803178D000313300803178F0072
:100380008D0A03198F0A0313822903170313080028
:100390003608A10135020318D0293508A000DC2950
:1003A000A0010830B700B50DA00D360820020318D3
:1003B000A000A10DB70BD32908002030301E30302B
:1003C000B1002F08A000AF1FEC29A009A00A200847
:1003D000AF002D30B100B0172F08B5006430B60063
:1003E000C8212008AF0030302107B2002F08B50027
:1003F0000A30B600C82130302007B4003030210761
:10040000B3003108A000B01D072AB01F3011301A08
:10041000142AB01F2F2A30192F2A2008B200B01832
:100420002F2A2008B3002F2A30303202031D2F2A32
:100430002008B2002030B100B01D222A3011B014C3
:10044000B01FB01030303302031D2F2A2008B30034
:100450002030B200B01D222AB010B01F3010301D65
:10046000342A3108B5001521B01C392A3208B500EC
:100470001521301C3E2A3308B50015213408B5007B
:1004800015210800831603178C170C1400000000B8
:100490000318712A83120C087F390313B000031765
:1004A0000D080313B10003170F080313B20030083F
:1004B000B5001521310803178D0003133208031707
:1004C0008F0083168C170C14000000008312031396
:1004D000AF0B6B2A6E2A83160317712A902A831694
:1004E000031783120C0D0E0D7F390313B000031791
:1004F0000D080313B10003170F080313B2003008EF
:10050000B5001521310803178D00031332080317B6
:100510008F008D0A03198F0A03100313AF0B422AB1
:1005200008008316051083120510831685108312A8
:10053000851483160511831205150A30B000572063
:100540008316851583128519AE2A831685158312A5
:10055000851DA52A0130A1003B2BC92A831605164B
:100560008312051ABC2A831605168312051EB32AA8
:100570000430A1003B2BC92A831685168312851AE5
:10058000C92A831685168312851EC12A0730A10049
:100590003B2B8316051083120514831685108312D6
:1005A000851083160511831205150A30B0005720F7
:1005B0008316851583128519E62A831685158312FD
:1005C000851DDD2A0230A1003B2B012B8316051669
:1005D0008312051AF42A831605168312051EEB2AC8
:1005E0000530A1003B2B012B831685168312851A3B
:1005F000012B831685168312851EF92A0830A10067
:100600003B2B831605108312051483168510831265
:10061000851483160511831205110A30B000572086
:1006200083168515831285191E2B83168515831253
:10063000851D152B0330A1003B2B392B8316051686
:100640008312051A2C2B831605168312051E232BE5
:100650000630A1003B2B392B831685168312851A91
:10066000392B831685168312851E312B0930A10084
:100670003B2BFF30A1008A11002E0130AD002D0868
:10068000083C031C9F2B2D082502031D9D2B0130C8
:100690002D02AE002608A0002E08A1000319542B3D
:1006A0000310A00CA10B502B20188C2B01302D0215
:1006B000AF002708A0002F08A1000319632B031027
:1006C000A00CA10B5F2B20188C2B28080139031DCF
:1006D0007A2B01302D02AE000130A0002E08A100BF
:1006E0000319762B0310A00DA10B722B2008A60472
:1006F00024158A2B01302D02AE000130A0002E08F7
:10070000A1000319872B0310A00DA10B832B200838
:10071000A7042411A80A9D2B323003178D00003046
:100720008F00031382210430AE00FA30B00057204E
:10073000AE0B952B0130AF006B20AD0A3F2B250887
:10074000093C031DDB2B2418CA2BA418CA2B28082C
:100750000139031DBA2B24142C132C08831687008F
:1007600083120717AC132C08831687008312871394
:100770002415C82BA414AC132C08831687008312ED
:1007800087172C132C088316870083120713241154
:10079000A80ADB2B3B3003178D0000308F000313BA
:1007A00082210430AE00FA30B0005720AE0BD32BBC
:1007B0000130AF006B208A11032E0830AE00AE0866
:1007C0000319102C01302E02AF002D08A0002F08B5
:1007D000A1000319EF2B0310A00CA10BEB2B201889
:1007E000F82B2C102C088316870083120710FE2B81
:1007F0002C102C088316870083120714AC102C08C9
:1008000083168700831287140330A000A00B062CE8
:10081000AC102C088316870083128710AE03DF2BE1
:100820002C112C0883168700831207150330A000B3
:10083000A00B182C2C112C0883168700831207118B
:100840008A11062E0830AE00AE080319552C01306F
:100850002E02AF002D08A0002F08A1000319342C90
:100860000310A00CA10B302C20183D2CAC112C082F
:100870008316870083128711432CAC112C08831632
:100880008700831287152C122C0883168700831289
:1008900007160330A000A00B4B2C2C122C0883163B
:1008A000870083120712AE03242CAC122C08831687
:1008B0008700831287160330A000A00B5D2CAC12BA
:1008C0002C0883168700831287128A11092E331091
:1008D0002F080739073C031D6F2C3314A52C2F0854
:1008E0003839383C031D762C3314A52C2F08C03919
:1008F000C03C031D7F2C300B7F2C3314A52C2F08FC
:100900001139113C031D882C300B882C3314A52C75
:100910002F085439543C031D8F2C3314A52C2F0859
:100920002439243C031D982C300B982C3314A52C0F
:100930002F084939493C031D9F2C3314A52C2F083F
:100940009239923C031DA52C3314331CB52C320B69
:10095000AF2CAA0A3108840001308000B42CAB0A05
:100960003108840002308000B82C310884008001F6
:100970000800AE080319F22CA90AA601A701241049
:10098000A4108030AF006B204D3003178D00003075
:100990008F00031008300313AF0042222E08AF006F
:1009A0001F30B000DD21523003178D0000308F0062
:1009B000031008300313AF0042220430AF00FA30B6
:1009C000B0005720AF0BDF2CAC132C088316870028
:1009D000831287132C132C088316870083120713A6
:1009E000A80124110800AD01003024180130AE0028
:1009F0002608AF002E08B0002D30B1000130B20043
:100A00006724AD080319072D2D08AE00B924003066
:100A1000A4180130AE002708AF002E08B0002D301A
:100A2000B1000230B2006724AD0803191A2D2D0859
:100A3000AE00B92426082704FF3C031D4E2D0030CC
:100A400024180130AF000030A41801302F04013CFD
:100A5000031D4E2DA90AA601A7012410A410803061
:100A6000AF006B20443003178D0000308F0003135C
:100A700082210430AE00FA30B0005720AE0B3B2D7F
:100A8000AC132C0883168700831287132C132C08B1
:100A90008316870083120713A80124118A110A2ED6
:100AA00084011F3083052410A410FF30A500A60187
:100AB000A701A801A901AA01AB012411AC0083166A
:100AC0001F149F141F159F1107309C008312DB28F1
:100AD0004030AF006B200630B50015210930B5005D
:100AE00015210930B50015210630B5001521B501D5
:100AF0001521B5011521B5011521B50115210130CB
:100B0000AF006B20043003178D0000308F000313FB
:100B10008221C030AF006B204A30B50015213A3039
:100B2000B50015212908AF001130B000DD210E30CD
:100B300003178D0000308F00031404300313AF003F
:100B400042222A08AF001130B000DD211230031715
:100B50008D0000308F00031004300313AF004222D9
:100B60002B08AF001130B000DD210C30AD00FA30A1
:100B7000B0005720AD0BB72DC030AF006B204A300E
:100B8000B50015213A30B50015212908AF00113004
:100B9000B000DD21183003178D0000308F000314E2
:100BA00004300313AF0042222A08AF001130B00016
:100BB000DD211C3003178D0000308F00031004303E
:100BC0000313AF0042222B08AF001130B000DD212B
:100BD0002419F52D8030AF006B20203003178D00D5
:100BE00000308F0003138221FF2D8030AF006B2077
:100BF000293003178D0000308F0003138221912AC2
:100C00002108A5003D2B2608AD00DD2B2708AD00EF
:080C1000222CF32CBC2D630023
:02400E00313F40
:00000001FF
;PIC16F873A
;CRC=ED29  CREATED="23-nov-13 19:37"
